:020000040800F2
:10000000A80400200101000867150008BB140008BF
:1000100065150008C90A0008ED1600080000000078
:100020000000000000000000000000006B15000848
:10003000CB0A000800000000691500086D150008D3
:100040001B0100081B0100081B0100081B01000820
:100050001B0100081B0100081B0100081B01000810
:100060001B0100081B0100081B0100081B01000800
:100070001B0100081B0100081B0100081B010008F0
:100080001B0100081B0100081B0100081B010008E0
:100090001B0100081B0100081B0100081B010008D0
:1000A0001B0100081B0100081B0100081B010008C0
:1000B0001B0100081B0100081B0100081B010008B0
:1000C0001B0100081B0100081B0100081B010008A0
:1000D0001B0100081B0100081B0100081B01000890
:1000E0001B0100081B0100081B010008DFF80CD0F1
:1000F00000F04EFB00480047B9230008A804002088
:100100000648804706480047FEE7FEE7FEE7FEE7B1
:10011000FEE7FEE7FEE7FEE7FEE7FEE7CF15000895
:10012000ED000008202A04DB203A21FA02F0002129
:10013000704721FA02F3D040C2F1200291400843F7
:1001400019467047D2B201E000F8012B491EFBD2DC
:1001500070470022F6E710B513460A4604461946D2
:10016000FFF7F0FF204610BD2DE9FE4F804681EAE3
:100170000300C00F0C46009021F0004123F0004521
:10018000B8EB0200A94105D24046214690461C46E4
:100190000B46024623F00040104347D0270DC7F31B
:1001A0000A00C3F30A510290401A019040286BDA0A
:1001B000C3F3130040F4801B0098924620B1002343
:1001C000D2EB030A63EB0B0B01985946C0F14002D6
:1001D000504600F0E1F906460D4650465946019A50
:1001E00000F0E9F910EB08006141002487EA1152A0
:1001F00084EAE7731A4340D0009A62B3019A012A55
:100200004FEA075215DC001B61EB02014FF0004280
:1002100002EA0752CDE90042001C41F58011324646
:100220002B4600F020FA03B0BDE8F08F404621468F
:10023000F9E7001B61EB0201001C41F58013001877
:100240005B412018A2F5001747EB030140EAD57087
:10025000B6196D4111E06D084FEA360645EAC075E2
:100260004FEA0752001B61EB0201001C41F58011AF
:1002700049084FEA30000019514132462B4603B07D
:10028000BDE8F04F00F0E0B90098012240000023E3
:10029000D0EB020263EBE073009821464FEAE07472
:1002A000B8EB000061EB0401E9E783F000435BE792
:1002B00081F0004158E72DE9FE4F81EA030404F084
:1002C000004421F0004100944FF0000B23F0004364
:1002D00050EA01045ED052EA03045BD0C3F30A542F
:1002E000C1F30A552C44A4F2F3340194A0FB025448
:1002F000C1F3130141F48011C3F3130343F48013DA
:1003000001FB024400FB034E840A970A44EA81542D
:1003100047EA8357A4FB076802958D0A05FB07850A
:100320004FEA932C04FB0C542705029D4FEA065814
:1003300047EA1637B5EB08056EEB070C870E920EF1
:1003400047EA811742EA8312A7FB0201B6EB0B01D1
:1003500064EB00042B0D43EA0C335E1844EB1C5095
:10036000DA465146E7FB0201C5F313044FEA0B33AB
:1003700043EA14534FEA0432019C43EA0603A4F112
:100380000C040294009CCDE900B400F06CF903B0B9
:10039000BDE8F08F00200146F9E72DE9F04D81EA34
:1003A000030404F0004B21F0004514464FF0000A0E
:1003B00023F0004150EA050220D054EA01021DD08A
:1003C000C5F30A570246C5F31303C1F31300C1F383
:1003D0000A5640F4801543F48013A7EB0608101B5F
:1003E000D64608F2FD3873EB050002D308F1010888
:1003F00001E092185B41B8F1000F03DA00200146DA
:10040000BDE8F08D00204FF48011064684460EE0D2
:10041000171B73EB050705D3121B63EB050306439C
:100420004CEA010C49084FEA300092185B4150EA4F
:100430000107EDD152EA030012D082EA040083EAF8
:100440000501084305D0101BAB4106D20122002351
:1004500006E000224FF0004302E06FF0010253106B
:100460001AEB06004CEB085110EB0A0041EB0B01B4
:10047000BDE8F04D00F0E8B8C10F80EAE070084434
:10048000CA079623002100F0B1B80EB5C10F80EA6B
:10049000E0700844CA07002140F233438DE80E00A3
:1004A0000A460B4600F0DFF803B000BD00F0004242
:1004B00030F000400AD0C10D01F56071C0F31600A4
:1004C00042EA0151C208400711437047002001462B
:1004D000704701F0004330B421F0004150EA0102BE
:1004E00006D00A0DA2F56072C1F31301002A02DCE6
:1004F00030BC00207047440F44EAC104C100E0183A
:1005000030BC00EBC25000F068B830B50B46014675
:1005100000202022012409E021FA02F59D4205D3A2
:1005200003FA02F5491B04FA02F52844151EA2F14C
:100530000102F1DC30BD2DE9F05F05460020924656
:100540009B4688460646814640241BE02846414695
:1005500047462246FFF7E6FD53465A46C01A9141E8
:1005600010D311461846224600F016F82D1A67EBF4
:1005700001084F4622460120002100F00DF817EB3C
:1005800000094E41201EA4F10104DFDC484631463B
:100590002A464346BDE8F09F202A04DB203A00FAB1
:1005A00002F1002070479140C2F1200320FA03F3CA
:1005B000194390407047202A06DBCB17203A41FAB6
:1005C00002F043EAE07306E041FA02F3D040C2F1E0
:1005D000200291400843194670470029A8BF704780
:1005E000401C490008BF20F00100704710B4B0FA69
:1005F00080FC00FA0CF050EA010404BF10BC704704
:1006000049B1CCF1200421FA04F411FA0CF118BF1D
:10061000012121430843A3EB0C01CB1D4FEA0061EC
:100620004FEA102042BF002010BC704700EBC350BF
:1006300010440029A4BF10BC7047401C490008BFEB
:1006400020F0010010BC704710B5141E73F10004B7
:1006500008DA401C41F1000192185B411A4301D1B4
:1006600020F0010010BD2DE9F04D92469B4611B1DE
:10067000B1FA81F202E0B0FA80F220329046FFF740
:100680008BFF04460F4640EA0A0041EA0B0153463D
:100690005A46084313D0114653EA010019D0C8F155
:1006A00040025046FFF73EFD05460E46504659466D
:1006B0004246FFF771FF084305D0012004E02046C1
:1006C0003946BDE8F08D0020054346EAE0762C432C
:1006D00037430A986305E40AA0EB08000022FD0AEC
:1006E00044EA47540A3002D500200146E9E70105F3
:1006F00010196941DDE9084500196941BDE8F04D6F
:10070000A2E770B521F0004303430CD0C1F30A55B2
:100710000024D5EB040564EB0403D617AD1AB341EE
:1007200002DB0020014670BD201841EB025170BD74
:10073000C1F30A52C1F3130140F2FF3341F48011B7
:100740009A4202DA00200146704740F233439A424F
:10075000A2F2334202DC5242FFF7E4BCFFF71CBFB7
:1007600030B5041E71F1000404DB4FF00044404238
:1007700064EB0101141E73F1000405DB1C464FF00D
:100780000043524263EB0403994208BF904230BDDC
:10079000064C074D06E0E06840F0010394E80700CE
:1007A00098471034AC42F6D3FFF7A4FC2C2F000876
:1007B0004C2F00082DE9F04D00231A461B1A8A41E0
:1007C00003DB00200146BDE8F08DC1F30A52C1F3FE
:1007D000130141F480154FF0000BD10702D100182E
:1007E0006D41521E0027044640F2FF11384601EBCE
:1007F000620A3E468046024600204FF48011FFF711
:1008000091FCC2197141BB1846EB0100B4EB030C1B
:1008100075EB000C04D3E41A65EB000517460E4691
:10082000241908F101006D4180463428E3DDF919EF
:1008300046EB0600091BA84103D24FF0FF321346D6
:1008400001E0002213461BEB070046EB0A51BDE80E
:10085000F04DFFF7F9BE01F095BC000010B5AA20DD
:1008600000F04BF8154C2080AC2000F046F860807A
:10087000AE2000F042F8A080B02000F03EF8E0800A
:10088000B22000F03AF82081B42000F036F8608100
:10089000B62000F032F8A081B82000F02EF8E081F8
:1008A000BA2000F02AF82082BC2000F026F86082EE
:1008B000BE2000F022F8A08210BD00005C000020E5
:1008C00010B5044601F006FDEE2001F0D7FC01F062
:1008D00043FD204601F0D2FC01F03EFD01F0FAFCA0
:1008E000EF2001F0CBFC01F037FD012001F098FC76
:1008F000044601F013FD204610BD70B5044601F01A
:10090000E9FCEE2001F0BAFC01F026FD204601F0E2
:10091000B5FC01F021FD01F0DDFCEF2001F0AEFCA3
:1009200001F01AFD012001F07BFC0446002001F0DB
:1009300077FC054601F0F2FC05EB042000B270BD27
:1009400010B53421F42000F0A7F8052000F0C0F81D
:10095000F620FFF7D2FF80B210BD10B52E21F42093
:1009600000F09AF8052000F0B3F8BDE81040F6203A
:10097000FFF7C3BF70B5FFF7F0FF404CA061FFF772
:10098000ECFFA061FFF7DCFFE0616289A169B4F9C7
:100990001230891A2289DB025143B4F91420C91399
:1009A0000A4493FBF2F2114401F10802121162644D
:1009B0006163A1F57A61A16301FB01F2B4F90E3024
:1009C00012135343DD12B4F9023002264B4305EBF8
:1009D000E323B4F9005006EB85052B44DD1703EB48
:1009E00095739B10E362B4F90450C01A4D43691328
:1009F0002162B4F90C506A4312141144891C891005
:100A0000C4E90921E28801F500414A43D10B4CF2C7
:100A1000503250432163E063B0F1004F03D24000F5
:100A2000B0FBF1F002E0B0FBF1F0400001124943ED
:100A300040F6DE325143124A091442431214C4E90B
:100A40000812114401F6CF6100EB21102064FFF77A
:100A50001CFD00220B4BFFF7A0FC0B4A0B4B01F0D7
:100A6000EDFC00220A4BFFF723FC0022094BFFF7A5
:100A700022FCFFF72EFDA06470BD00005C0000208A
:100A800043E3FFFFD0BCF8406C45D9CC955BC83F31
:100A90000000F03F40A5E54070B50D46044601F06A
:100AA00019FCEE2001F0EAFB01F056FC204601F0B3
:100AB000E5FB01F051FC284601F0E0FB01F04CFCA5
:100AC000BDE8704001F02ABCFEE7704772B6FEE751
:100AD00070B5044600F008F90546601C02D00448D1
:100AE0000078044400F000F9401BA042FAD370BD26
:100AF000000000202DE9F84FDFF8B891002409F13B
:100B0000040A0AF1040B23460F270BF1040EC9E077
:100B10000125A5402A40AA427DD1674ED1F804C0E4
:100B2000ACEB0608B44532D014DCBCF1030F3AD06C
:100B300009DCBCF1000F2AD0BCF1010F1CD0BCF1C4
:100B4000020F31D11DE0BCF1110F17D0BCF1120F13
:100B50002AD119E0B8F5881F19D006DCB8F5803F16
:100B600015D0B8F5801F1FD111E0B8F5001F0ED0C9
:100B7000B8F5041F18D10AE0CB6815E0CB681B1D3F
:100B800012E0CB6808330FE0CB680C330CE08B68C5
:100B90002BB1012B4FF0080303D0456104E004237F
:100BA00002E0056100E00023FF2A01D8064601E0CB
:100BB00000F104064FEA840501D9A5F12005D6F815
:100BC000008007FA05FC28EA0C0803FA05F548EA54
:100BD0000508C6F800804D68ED0062D5374DAE6956
:100BE00046F00106AE61AD6924F0030605F001058B
:100BF0000095334D06EB050CDCF80850A607360FC0
:100C000007FA06F825EA0805DFF8B880404503D161
:100C10004FF0000817E044E0DFF8AC80404502D117
:100C20004FF001080FE0DFF8A480404502D14FF0FB
:100C3000020808E0DFF89880404502D14FF0030831
:100C400001E04FF0040808FA06F848EA0508CCF875
:100C500008804D68D9F80060ED034D4601D5164374
:100C600000E096432E604D68DAF80060AD0355460B
:100C700001D5164300E096432E604D68DBF8006016
:100C8000ED025D4601D5164300E096432E604D68A7
:100C9000DEF80060AD02754601D5164300E09643CC
:100CA0002E60641C0D682A46E5407FF431AFBDE834
:100CB000F88F0000000401400000111000100240F5
:100CC0000000014000080140000C014000100140FC
:100CD000001401408068084000D0012070470AB12C
:100CE000016170470904FBE7014880687047000014
:100CF000000000200248816802781144816070473A
:100D000000000020074810B5016841F010010160A3
:100D1000032000F067F80F2000F006F800F024F838
:100D2000002010BD0020024070B50D4D04464FF468
:100D30007A712878B1FBF0F00A490968B1FBF0F04C
:100D400000F0E4FA48B9102C07D200222146501EC8
:100D500000F028F800206C6070BD012070BD00001C
:100D6000000000200C0000200C4808B5816941F00B
:100D700001018161816901F001010091C16941F0C6
:100D80008051C161C06900F0805000900448416802
:100D900021F0E06141F00071416008BD00100240A7
:100DA00000000140F0B40E4B1B680C46C3F3022355
:100DB000C3F10705042D00D90425191D072901D207
:100DC000002300E0DB1E012606FA05F1491E214042
:100DD00099409E40761E16403143F0BC00F0ACBCFA
:100DE0000CED00E0064900F0070208684FF6FF032B
:100DF000184040EA0220034A104308607047000090
:100E00000CED00E00000FA052DE9F0470F46050063
:100E100061D0434E306800F00700B84209D2306814
:100E200020F0070038433060306800F00700B84217
:100E300051D128683B4C810712D5400703D5606823
:100E400040F4E06060602878000703D5606840F4F3
:100E5000605060606068A96820F0F000084360603E
:100E60002878C00728D06868012810D02168022897
:100E700010D0890700292EDA616821F003010143AF
:100E80006160FFF731FF804641F288390DE021684B
:100E90008903EFE78901EDE7FFF726FFA0EB0801E3
:100EA000494502D90320BDE8F0876068696800F011
:100EB0000C00B0EB810FEFD1306800F00700B842B2
:100EC0000BD9306820F0070038433060306800F0FC
:100ED0000700B84201D00120E5E72878400705D592
:100EE0006068E96820F4E0600843606028780007E3
:100EF00006D56068296920F4605040EAC10060604E
:100F000000F03EF86168084AC1F30311515CC84023
:100F10000649086006480068FFF706FF0020C2E7A0
:100F20000020024000100240402E00080C0000206B
:100F30000400002001480068704700000C000020F9
:100F40000448054900684968044AC1F30221515C1C
:100F5000C84070470C00002000100240502E0008CE
:100F60000448054900684968044AC1F3C221515C3C
:100F7000C84070470C00002000100240502E0008AE
:100F800012A185B00FC98DE80F0014A0144A0068A3
:100F900004905168134801F00C03042B10D0082B67
:100FA0000ED1C1F38343C9031DF803000AD551686C
:100FB00004AAC1F34041515C0A4A5043B0FBF1F02E
:100FC00005B0704708494843FAE7000002030405EA
:100FD000060708090A0B0C0D0E0F10100102000085
:100FE0000010024000127A0000093D002DE9F84F80
:100FF000040070D02078C04DC00749D06868C0F3A5
:101000008100012807D06868C0F38100022809D157
:101010006868C00306D52868800339D56068002851
:10102000E7D035E06068B0F5803F0BD010B1B0F587
:10103000A02F11D0286820F480302860286820F480
:10104000802002E0286840F480302860606890B119
:10105000FFF74AFE06460AE0286840F48020286030
:10106000F0E700BFFFF740FE801B642873D82868B4
:101070008003F7D50CE0FFF737FE064605E000BF1A
:10108000FFF732FE801B6428F0D828688003F7D46D
:1010900020789A4E80074FF001094FF0000839D5AB
:1010A000686810F00C0F07D06868C0F38100022850
:1010B00009D16868C00306D42868800714D5206960
:1010C000012808D110E02069B0B1C6F80090FFF700
:1010D0000BFE074605E00AE1FFF706FEC01B0228EB
:1010E000C4D828688007F7D52868616920F0F8001F
:1010F00040EAC10028600DE0C6F80080FFF7F4FD6B
:10110000074604E0FFF7F0FDC01B022823D828683B
:101110008007F7D4207800072CD57948A169D9B188
:10112000C0F80090FFF7E0FD074604E0FFF7DCFDA4
:10113000C01B02280FD8686A8007F7D571484FF4A2
:10114000FA510068B0FBF1F0009000BF0098411E1A
:101150000091FAD20EE080E0C0F80080FFF7C4FDF5
:10116000074604E0FFF7C0FDC01B022875D8686A77
:101170008007F7D42078400760D5E8690027C000D1
:1011800008D4E86940F08050E861E869012700F080
:10119000805000905C480168C90513D401688346FB
:1011A00041F480710160FFF79FFD824606E000BFB9
:1011B000FFF79AFDA0EB0A0064284ED8DBF8000088
:1011C000C005F5D5E06801280AD008B1052813D07C
:1011D000286A20F001002862286A20F0040002E05A
:1011E000286A40F001002862E06841F2883B98B12B
:1011F000FFF77AFD82460BE0286A40F0040028627F
:10120000EEE700BFFFF770FDA0EB0A0159455AD881
:10121000286A8007F6D50CE0FFF766FD824605E0F8
:10122000FFF762FDA0EB0A0159454CD8286A8007F8
:10123000F6D41FB1E86920F08050E861E06988B316
:101240006968C1F38101022944D00228C6F8608090
:1012500004D0FFF749FD044638E034E0FFF744FDD1
:10126000074604E0FFF740FDC01B02282BD8286882
:101270008001F7D4206AB0F5803F05D16868A16885
:1012800020F4003008436860D4E908010843696825
:1012900021F4741108436860C6F86090FFF724FDDC
:1012A000044606E025E000BFFFF71EFD001B0228F4
:1012B00009D828688001F7D51BE000BFFFF714FDAF
:1012C000001B022802D90320BDE8F88F286880019E
:1012D000F4D40EE00128F7D06868226A00F4803167
:1012E000914204D1616A00F47010884201D001205B
:1012F000EAE70020E8E70000001002400000424258
:10130000800442420C0000200070004010B5401ED6
:10131000B0F1807F01D3012010BD4FF0E024606167
:101320000F21601700F008FA0020A061072020615B
:10133000002010BD70B5040004D094F83D000025D5
:1013400010B106E0012070BD84F83C50204600F04A
:1013500023F8242084F83D002068C16821F400515E
:10136000C160204600F034F92068016921F4904101
:1013700001612068416921F02A0141612068C1684A
:1013800041F40051C1602564202084F83D0084F8B8
:101390003E00002070BD000030B585B000240094F0
:1013A00001940294039400681449884224D114489B
:1013B000816941F480418161816901F48041049136
:1013C000816941F00401816180690E4D00F00400E3
:1013D00004904FF4007000900220019003200390CD
:1013E00069462846FFF786FB2815CDE900046946C3
:1013F00028460294FFF77EFB05B030BD003801405F
:1014000000100240000801402DE9F843044690F81E
:101410003D001F4616460D4620284CD1C5B1BEB131
:1014200094F83C00012846D0012084F83C004FF09D
:101430000008C4F84080212084F83D00FFF754FCE8
:10144000A6848146E684A068B0F5805F03D004E0FE
:101450000120BDE8F883206928B12E465FF0000521
:1014600084F83C800EE00026FAE78021204600F058
:101470000BF9A0B9AEB116F8010B21684860E08CF9
:10148000401EE084E08C4B464FF00002009700289D
:10149000EBD14FF04001204600F0F6F830B10320C8
:1014A000D7E735F8020BC0F30800E6E7202084F800
:1014B0003D000020CDE70220CBE7FEE730B585B048
:1014C000002418480094019402940394816941F027
:1014D00020018161816901F020010491816941F05D
:1014E00004018161816901F004010491816941F085
:1014F0000801816180690C4D00F008000490002211
:10150000C0212846FFF7EBFBC02000900120CDE969
:1015100001040220039069462846FFF7EBFA05B064
:1015200030BD000000100240000C01400C4810B516
:101530000A4901604FF4E1314160002181600C22D1
:10154000C160C0E904128161C161FFF7F3FE0028A8
:1015500003D0BDE81040FFF7B9BA10BD0038014014
:1015600018000020FEE7FEE770477047FFF7C2BB98
:1015700030B58FB028216846FEF7EBFD14210AA88C
:10158000FEF7E7FD01210804CDE9001000240294D4
:1015900002250491CDE907504FF4E0100990684608
:1015A000FFF724FD08B172B6FEE70F20CDE90A056A
:1015B0004FF48060CDE90C4002210AA80E94FFF799
:1015C00023FC002801D072B6FEE70FB030BD704793
:1015D00070B5044600680169E26821F44051114386
:1015E00001612169A0680843616908432168CA68EC
:1015F00041F20C639A430243CA6020684169A269C0
:1016000021F44071114341611E492068884202D192
:10161000FFF7A6FC01E0FFF793FC00EBC00101EB34
:101620000012606864218000B2FBF0F3B3FBF1F3B9
:101630006FF018067343B2FBF0F5B2FBF0F605EB62
:101640008305322303EB0515B5FBF1F5B6FBF1F687
:1016500005F0F00505EB0615B2FBF0F6B2FBF0F075
:10166000B0FBF1F06FF01802504306EB800003EB83
:101670000010B0FBF1F0216800F00F0028448860F2
:1016800070BD0000003801402DE9F0419846174632
:101690000E460446069D1DE0681C1BD02DB1FFF7C9
:1016A00023FBA0EB0800A84214D92068C16821F4EC
:1016B000D071C1602068416921F0010141612020A1
:1016C00084F83D0084F83E00002084F83C000320AC
:1016D000BDE8F0812068006836EA000004D00020F0
:1016E000B842D9D00020F3E70120F9E7FEE7000077
:1016F0000FB4054B10B503A9044A029800F06AF92B
:1017000010BC5DF814FB000021210008100000202F
:10171000490050EAC12018BF04204A0D18BF40F00C
:10172000010040F2FF72B2EB515F08BF40F00200CF
:10173000012808BF052070470907090E002804DBAF
:1017400000F1E02080F80014704700F00F0000F175
:10175000E02080F8141D70472DE9F0414F1E00EB8A
:10176000C7010446D1E9000115461E4637F00602BE
:101770000DD02A463346FEF79EFD7F1E04EBC703BD
:10178000D3E90023FEF7F0FC37F00602F1D1022F77
:1017900025D0042F13D0062F18BFBDE8F0812A46AC
:1017A0003346FEF788FDD4E90A23FEF7DDFC2A461E
:1017B0003346FEF780FDD4E90823FEF7D5FC2A4620
:1017C0003346FEF778FDD4E90623FEF7CDFC2A4622
:1017D0003346FEF770FDD4E90423FEF7C5FC2A4624
:1017E0003346FEF768FDD4E90223FEF7BDFC2A4626
:1017F0003346FEF760FDD4E90023BDE8F041FEF773
:10180000B3BC00000022134610460149FEF7C5BDD7
:101810000000F03FFEF7A8BC002213461046114618
:10182000FEF7BBBD40F2013200204FF0E041FEF771
:1018300068BF0000024A00201107FEF762BF0000E7
:1018400001FDFFFF02E008C8121F08C1002AFAD1FB
:1018500070477047002001E001C1121F002AFBD130
:101860007047000001490860704700001400002024
:101870002DE9FF5FDDE90220010DDDF838B00243FC
:1018800018D044F61050A1F2FF3141430D140F98C7
:10189000012820D0A5EB0B00401C5FEA000A4FF0A6
:1018A0000004474EDFF81C91A046504616D5CAF1F9
:1018B000000728E00F98012443A2012808D0002146
:1018C00000980F9BC0E90021C0E90243BDE8FF9FDB
:1018D0006FEA0B01F4E7CBF10000DEE7074612E008
:1018E000F80707D02246334640464946FEF7E3FC58
:1018F000804689462246334610461946FEF7DBFCF1
:1019000004460E467F10002FEAD1DDE90201BAF14C
:10191000000F42464B4602DAFEF7CDFC01E0FEF72F
:101920003CFD04460E460022284BFEF719FF03D863
:101930004FF0FF30014607E00022254B204631469C
:10194000FEF712FCFEF7F4FE102409E0002C0ADB7F
:101950000A220023FEF7EFFD019B30321A55641E68
:1019600050EA0102F2D1641C019AC4F1110314443B
:101970000F9A012A03D0012208430DD10AE008433F
:1019800004D000204FF0110B0F9080E7A3EB0B0564
:101990006D1E0DE05B4504DD4FF0000205F1010511
:1019A00004E003DA4FF00002A5F10105002AECD0B3
:1019B00000980F99C0E90231C0E9004586E70000B0
:1019C000000024400000F03F300000000000F04321
:1019D0000000E03F2DE9FF4F95B09B468946064643
:1019E00000250FE2252877D100242746F84A012157
:1019F000059400E0044316F8013F203B01FA03F090
:101A00001042F7D130782A2811D06FF02F033078A8
:101A1000A0F13002092A16D8059A44F0020402EB1C
:101A2000820203EB42021044761C0590EFE759F85E
:101A3000042B0592002A03DA504244F40054059026
:101A400044F00204761C30782E2816D116F8010FC7
:101A500044F004042A280DD06FF02F023078A0F152
:101A60003003092B09D807EB870302EB4303C718A0
:101A7000761CF3E759F8047B761C30786C280FD07D
:101A800006DC4C2817D068280DD06A2814D104E051
:101A9000742810D07A280FD10DE044F400140AE025
:101AA00044F4801401E044F440147278824202D17C
:101AB00004F58014761C761C307866280BD013DC75
:101AC000582877D009DC002875D04528F6D046285C
:101AD000F4D047281AD19DE118E0632835D0642856
:101AE00079D0652812D195E1702873D008DC672879
:101AF000F1D069286FD06E280DD06F2806D1B5E0DF
:101B000073282CD0752875D0782874D05A46179928
:101B100090476D1C75E1C4F30250022809D00328D8
:101B20000DD0D9F8001004280DD00D6009F104097A
:101B300067E1D9F80010EA17C1E90052F6E7D9F8D1
:101B400000100D80F2E70D70F0E719F8041B8DF816
:101B5000001000208DF80100EA46012003E059F84A
:101B600004AB4FF0FF3061074FF0000102D40DE0ED
:101B700008F101018846B9420FDA8045F8DB1AF80E
:101B800008100029F4D108E008F1010188468142DB
:101B9000FADB1AF808100029F6D105985B46A0EB8D
:101BA000080721463846179A00F094FA284400EBBB
:101BB000080507E04DE029E10DE01AF8010B5A464F
:101BC00017999047B8F10108F7D25B46214638468D
:101BD000179A13E142E00A220092C4F302524FF036
:101BE000000A022A08D059F804CB032A4FEAEC7104
:101BF0000AD00DE029E02AE009F1070121F00702EF
:101C0000F2E802C1914609E00FFA8CFC4FEAEC7150
:101C1000042A03D14FFA8CFC4FEAEC71002907DA51
:101C20000A460021DCF1000C61EB02012D2202E0EA
:101C3000220504D52B228DF80420012203E0E207BF
:101C400001D02022F7E7904659E00A2102E0102255
:101C50000DE010214FF0000A00910BE010224FF030
:101C6000000A44F004040827009203E008224FF021
:101C7000000A0092C4F30252022A05D059F804CB9C
:101C80000021032A08D009E009F1070121F0070229
:101C9000F2E802C1914605E01FFA8CFC042A01D14A
:101CA0000CF0FF0C4FF00008220728D5702806D052
:101CB000009B83F0100353EA0A0305D00EE0402294
:101CC0008DF80420012208E05CEA010206D03022EF
:101CD0008DF804208DF8050002229046009B83F0C9
:101CE000080353EA0A030AD15CEA010201D1620740
:101CF00005D530228DF804204FF001087F1E5828AA
:101D000004D034A003900EA802900DE036A0F9E7AD
:101D100053466046009AFEF70EFC84460398825CA8
:101D20000298401E029002705CEA0100F0D1029815
:101D300006A9081A00F1200A600702D524F48034AD
:101D400000E00127574502DDA7EB0A0000E0002074
:101D500000EB0A01009005984144401A0590E00309
:101D600006D45B462146179A059800F0B3F905445E
:101D7000002706E001A85A46C05D179990476D1CE0
:101D80007F1C4745F6DBE0030CD55B462146179ADE
:101D9000059800F09FF9054404E030205A46179951
:101DA00090476D1C0099481E00900029F5DC08E062
:101DB000029802995A460078491C02911799904757
:101DC0006D1CBAF10001AAF1010AF1DC65E1000025
:101DD0000928010030313233343536373839616201
:101DE00063646566000000003031323334353637C5
:101DF00038394142434445460000000000F058F99C
:101E00000544761C307800287FF4ECAD19B02846E4
:101E1000BDE8F08F620700D4062709F1070222F01F
:101E2000070CFCE80223E14603F000485FEA080CD7
:101E300002D00FF2702C0DE05FEA045C02D50FF2C5
:101E4000682C07E05FEAC47C02D00FF2602C01E04E
:101E5000AFF2700C4FF0FF3823F00043CDF850C0C4
:101E600065280CD006DC452809D046281DD0472817
:101E70003DD13DE0662818D067287ED138E00021AA
:101E8000112F01DB112000E0781CCDE9000106A92B
:101E90000EA8FFF7EDFCDDE90F010E9A039100217A
:101EA000009207F1010A04914DE04FF000400097C5
:101EB000CDE9011006A90EA8FFF7DAFCDDE90F0253
:101EC00003920E9B11990022DDF80CA0009304925E
:101ED00011B9791C00EB010AB7EB0A0004D4C0F178
:101EE000FF3007F1010A0490AAEB0700019044E0DB
:101EF000012F00DA01270021112F01DD112000E060
:101F00003846CDE9000106A90EA8FFF7B1FCDDE9CE
:101F10000F010E9A0391002104910092BA46210705
:101F20000CD40399514500DA8A46BAF1010F05DD58
:101F3000009AAAF10101515C302908D0B84202DAB6
:101F400010F1040F06DA0121CDE9011015E0AAF124
:101F50000101E9E7002805DC049901440491AAEB9A
:101F6000000102E0411C514500DD8A460499401AF7
:101F7000401C01904FF000400290200704D40198CB
:101F8000504501DBCDF8048000208DF84F00029809
:101F90000DF14F07B0F1004F25D02B200E90029885
:101FA0004FF0020800280CDA404202902D200E90DB
:101FB00007E00A210298FEF7A8FA3031029007F8EC
:101FC000011DB8F10001A8F10108F2DC0298002817
:101FD000EFD1791E0E980870307800F0200040F0A4
:101FE000450007F8020D12A8C01B00F1070814985D
:101FF000007800B1012000EB0A01019801EBE071CB
:1020000005984144401A401E0590E00306D45B4603
:102010002146179A059800F05DF805441498007859
:1020200018B15A46179990476D1CE00324D55B46BA
:102030002146179A059800F04DF805441CE00498D5
:10204000002807DBDDE90301884203DD0098405CDE
:10205000179901E0179930205A469047049805F1E6
:102060000105401C04900198401E019004D12E20CF
:102070005A46179990476D1CBAF10001AAF1010A5E
:10208000DDDC05E017F8010B5A46179990476D1CE7
:10209000B8F10001A8F10108F4DC5B462146179A6B
:1020A0000598ABE62D0000002B000000200000008A
:1020B0002DE9F041044600251E461746880404D445
:1020C00005E039462020B0476D1C641EF9D528462E
:1020D000BDE8F0812DE9F041044600251E469046FA
:1020E000C80301D5302700E02027880404D505E087
:1020F00041463846B0476D1C641EF9D52846BDE8F8
:10210000F081000010B50446FEF714FF0349B0FB50
:10211000F1F16143491EFDD210BD000000127A00AA
:1021200013B54FF6FF73012269460248FFF76CF9B9
:1021300000981CBD1800002010B5114C0022402151
:102140002046FEF7CCFD0220FFF7DCFF01228021B4
:102150002046FEF7C4FD0220FFF7D4FF00228021B5
:102160002046FEF7BCFD0220FFF7CCFF01224021F4
:102170002046FEF7B4FDBDE810400220FFF7C2BFC5
:10218000000C0140154810B5816986B041F0080186
:102190008161816901F008010491816941F00801C0
:1021A000816180690E4C00F008000490802000904E
:1021B0000120019002900320039069462046FEF71B
:1021C00099FC402000901120019069462046FEF7BE
:1021D00091FC00F0A3F806B010BD00000010024012
:1021E000000C014010B50D4C012240212046FEF7A5
:1021F00076FD0220FFF786FF012280212046FEF7B0
:102200006EFD0220FFF77EFF002280212046FEF7B0
:1022100066FDBDE810400220FFF774BF000C0140CE
:102220002DE9F0410024144E074625466006040EB1
:10223000012280213046FEF752FD0220FFF762FFA7
:1022400040213046FEF746FD08B1641CE4B200228E
:1022500080213046FEF743FD0220FFF753FF6D1C3F
:10226000EDB2082DE2D327B1FFF766FF2046BDE8A7
:10227000F081FFF7B7FFF9E7000C014070B5144E8D
:1022800005460024280601D5012200E00022402155
:102290003046FEF724FD0220FFF734FF01228021A3
:1022A0003046FEF71CFD0220FFF72CFF00228021A4
:1022B0003046FEF714FD6806641C050EE4B2082CD7
:1022C000E0D33046BDE8704001224021FEF707BD53
:1022D000000C014010B5104C012240212046FEF7B1
:1022E000FEFC012280212046FEF7F9FC0220FFF7C8
:1022F00009FF002240212046FEF7F1FC0220FFF7F3
:1023000001FF002280212046FEF7E9FCBDE81040D5
:102310000220FFF7F7BE0000000C014010B50D4C85
:10232000002240212046FEF7DAFC0220FFF7EAFEF9
:10233000012280212046FEF7D2FC0220FFF7E2FEB8
:10234000012240212046FEF7CAFCBDE810400220D1
:10235000FFF7D8BE000C014070B5164E002425468C
:10236000012240213046FEF7BAFC0220FFF7CAFEE8
:10237000012280213046FEF7B2FC0220FFF7C2FEA8
:1023800007E0641CE4B2FA2C03D9FFF7C7FF01256C
:1023900005E040213046FEF79DFC0028F1D10022E7
:1023A00080213046FEF79BFC0220FFF7ABFE28465B
:1023B00070BD0000000C01401FB5FEF7A3FCFFF745
:1023C000D7F8FFF77BF8FFF7B1F8FEF744FAFEF70E
:1023D00045FA174CDFF85C904FF00A084FF4FA7A90
:1023E000D020FEF76DFA0746FEF7C4FAA06CFEF7A0
:1023F0005DF805460E46206CFEF73EF8FEF756F8EF
:1024000000224B46FDF7C9FFD4F844C042469CFB6E
:10241000F2F39CFBF8F28DE8630008FB13C3394626
:102420000548FFF765F95046FEF752FBD8E7000074
:102430005C00002000408F40E82E00082DE9F04DA0
:1024400016460F4694B01C4621F0004123F000428E
:10245000002814BF4FF0010C4FF0000C0CEB470CA0
:10246000FE4B0CEB03054FEA630C65452BD335009F
:1024700018BF012505EB44051D44F94B9D4222D3AD
:10248000F84B52EA060C02D09F4205D148B914B06D
:1024900000201946BDE8F08D002808BF4FF0000C61
:1024A00001D04FF0010C0CEB470313F5001F0AD8C5
:1024B000002E14BF4FF0010C4FF0000C0CEB440346
:1024C00013F5001F07D914B0324623463946BDE83C
:1024D000F04DFFF79FB9DFF890834FF0000A002F0F
:1024E000B8BF424523DAE14B9A42A8BF4FF0020A37
:1024F0001DDADC4B93421ADCDD4B03EB2253142B29
:1025000008DDC3F1340C26FA0CF303FA0CFCB445D5
:102510000DD108E05EB9C3F1140C22FA0CF303FAF2
:102520000CFC944503D103F00103C3F1020A51EA04
:1025300000031BD1002C19DA002F18BFBAF1020FCB
:1025400002D0BAF1010F07D00220FFF78BF914B0C7
:10255000BDE8F04DFFF756B90220FFF783F9FFF70A
:1025600051F914B081F00041BDE8F08D330070D115
:10257000424525D107F1804212F5801201BF0028A3
:102580000020B84914B008BFBDE8F08DB5488842B6
:1025900007DC002CA1BF1846214614B0BDE8F08D21
:1025A00007E0002CBFBF184684F0004114B0BDE81E
:1025B000F08DB0497944D1E9000114B0BDE8F08D47
:1025C000DFF8A0C262452AD1002C24DA39B1414596
:1025D00017D1002804BF002002461CD106E040B1FC
:1025E0000220FFF73FF9FFF71DF90A46394600F0D0
:1025F000D7BA9D4A394614B0002062F31E01BDE8E7
:10260000F08D08DA14B03B46BDE8F04D02460020DC
:102610006146FDF7C2BE14B03946BDE8F08D4145B4
:1026200017DAB4F1804F0CD0A4F10053B3F1FF538B
:102630000FD13B1E0DDB14B01946BDE8F04D00F084
:10264000D9BB3B4614B00246BDE8F04D1946FDF734
:1026500032BE050027F000433AD1E1B1414537D100
:10266000002F06DD002CA1BF0020414614B0BDE8BC
:10267000F08D002F01DD002C1FDB002F16DA002C5F
:1026800014DBBAF1010F4FF0000014BF76497A490C
:1026900014B0BDE8F08DBAF1020F18BF002F0CD0B6
:1026A000BAF1010F09D1002F07DA0BE0002FB8BFF4
:1026B000002C0DDABAF1010F04D0002014B001464D
:1026C000BDE8F08D14B000204FF00041BDE8F08D62
:1026D0004FF0010808EBE77CCDF814C05CEA0A0C67
:1026E0000DD0DFF898C162457EDDDFF894C1654BFF
:1026F000624512DD8B420ADB002C18DB23E001204F
:10270000FFF7B0F814B0BDE8F04DFFF785B8554AB3
:102710008A4202DC002C0ADC15E0994202DA002C25
:1027200011DA04E04F4B994219DD002C0BDD022039
:10273000FFF798F8FFF776F84B4A14B061F31E02E2
:102740001146BDE8F08D0220FFF78CF8FFF772F814
:10275000444A14B061F31E021146BDE8F08D002218
:102760003946FDF7A2FD07460D466FF00102FDF761
:10277000C8FF4FF05532444BFDF79AFD3A462B46C1
:10278000FDF799FD0022414BFDF792FD80468B46F7
:102790003A462B4610461946FDF78DFD42465B46EC
:1027A000FDF789FD88460E904FF0C042384B384601
:1027B0002946FDF780FD83460091364A344B414659
:1027C0000E98FDF778FD80460191334A334B384629
:1027D0002946FDF770FD4246019BFDF766FD0D465B
:1027E00002460B460C9000E011E058460099FDF7B8
:1027F000BBFC002788465A463846009BFDF755FD2E
:102800002B460C9AFDF754FD024600F079B90020E2
:10281000B1F5801F07DA352228461946FDF771FF0A
:1028200005466FF0340000EB2150A0F2FF3001901C
:10283000C1F3130040F07F6141F04051029118490B
:102840008842D8BF4FF0000B35DD16498142C8BF22
:102850004FF0010B2FDC4FF0000B25E0FFFF1F00B6
:10286000FFFF0F000000F03F0000F07F000040433A
:1028700001FCFFFF280900000000F0FF0000E0411C
:102880000000F043FFFFEF3F5555D53F0000E03F0C
:102890004715F73FFE822B6544DF5DF80BAE543ED3
:1028A0008E9803007AB60B000198401C01900298A4
:1028B000A0F580100290FF480299784400EBCB000D
:1028C0000991D0E9002328460B931292FDF7EDFC05
:1028D00000910A9028460B9B129A0999FDF744FC37
:1028E00002460B460020F449FDF757FDCDE90C01E7
:1028F0000B46024600990A98FDF7DDFC0690EF486A
:102900008846002778440299006810904FF00050E4
:1029100040EA610000EB8B4000F5002102910B9B27
:10292000129A1098FDF7C1FC2A46099BFDF7C0FCDE
:102930003A464346FDF7BFFC08911290384641469F
:10294000029B109AFDF7B7FC009B0A9AFDF7B0FCBA
:10295000089B129AFDF7A9FCDDE90C23FDF7ABFCFF
:102960000B91069A1290434610461946FDF7A3FCB8
:1029700005460246D2480B460A9106217844FEF7E6
:10298000EBFE0A9B2A460891029010461946FDF775
:1029900092FC089B029AFDF78EFC0546099143467E
:1029A00038461946069AFDF7DFFB0B9B129AFDF796
:1029B00082FC2A46099BFDF7D7FBCDE908013A4680
:1029C000434610461946FDF776FC0A910022BD4B9E
:1029D0000090FDF7C9FBDDE90823FDF7C5FB0D46B7
:1029E0003A46B84B3846FDF760FC0A9B009AFDF763
:1029F0005CFCDDE90823FDF75BFCCDE908013A4604
:102A00002B4610464146FDF756FC00910A90DDE941
:102A100008014346069AFDF74EFC069088462B4671
:102A20003A460B991298FDF746FC4346069AFDF785
:102A30009BFB80460B4602460D9100990A98FDF7D4
:102A400093FB00200F460546009B0A9AFDF72DFCDC
:102A500042460D9BFDF72CFC88460E904FF06042DD
:102A6000994B28463946FDF726FC02910090974A7B
:102A7000954B41460E98FDF71EFC80460391944A03
:102A8000944B28463946FDF716FC4246039BFDF75A
:102A90006BFB914A7A4402EBCB03D3E90023FDF7A9
:102AA00063FB054607910198FDF7EFFC0C9003913D
:102AB0002A46079B02990098FDF756FB874A7A44FD
:102AC00002EBCB03D3E9002393460193FDF74CFBC4
:102AD000039B0C9AFDF748FB002788463846039B6A
:102AE0000C9AFDF7E2FB5A46019BFDF7DEFB029BC9
:102AF000009AFDF7DAFB2A46079BFDF7D9FB024651
:102B00000020069005986C4DAAF10103184301D1ED
:102B1000734D069000200B46049030462146FDF789
:102B2000CAFB82468B46234630461946049AFDF777
:102B3000BCFB3A464346FDF7BEFB52465B46FDF7FB
:102B400013FB06468A463A46434621460498FDF75B
:102B5000B2FB04460F4632465346FDF705FB614A79
:102B60008B46914221DBABEB020353EA000210D10A
:102B700022463B46FDF799FB804603915A4A5B4B40
:102B800030465146FDF7F0FA4246039BFDF7E8FD5B
:102B900027D20220FEF766FEFEF744FE0A462946CB
:102BA00014B062F31E01BDE8F08D514B2BF00042D2
:102BB0009A4216D34F4A0BEB020353EA000208D1A4
:102BC00022463B46FDF771FB32465346FDF7C8FDF2
:102BD00007D80220FEF746FEFEF72CFE0A462946DD
:102BE000DEE72BF000404449444A01EB20514FF00E
:102BF0000008824223DA481C4FF4801121FA00F0C9
:102C000058443F4AC0F30A517A443E4BA1F2FF3187
:102C1000CB4020EA0303C0F3130040F4801CC1F151
:102C2000140012682CFA00F8BBF1000FB8BFC8F10D
:102C3000000820463946FDF738FB04460F46224679
:102C40003B4630465146FDF78FFA4FF0000B5A468F
:102C50002D4B58460391FDF72EFB00910A902B4A0D
:102C60002B4B58460399FDF726FB04910290224610
:102C70003B4658460399FDF718FB32465346FDF78D
:102C800017FB244A244BFDF716FB049B029AFDF721
:102C90006BFA07468A46009B0A9AFDF765FA0446D6
:102CA0000E46009B0A9AFDF700FB3A465346FDF795
:102CB000FFFA33E09A0500000000F03FD80500005D
:102CC000080500000000084009C7EE3FFD033ADC9C
:102CD000F5015B14E02F3EBEE0030000A6030000F8
:102CE0000000F0BF00009040FE822B654715973C26
:102CF00000CC904000346F3F01FCFFFF0000E03F3C
:102D0000D4020000FFFF0F00432EE63F396CA80CF1
:102D1000615C20BEEF39FAFE422EE63F07462246AE
:102D200033460F9110461946FDF7C5FA8346024611
:102D30002E488A460B4605217844FEF70DFD5A467B
:102D40005346FDF7B8FA22463346FDF7B1FA8246FC
:102D50008B463A46204631460F9BFDF7ACFA3A4681
:102D60000F9BFDF701FA0F460A9000224FF08043B7
:102D700050465946FDF799FA0391009052465B463A
:102D800020463146FDF797FA039B009AFDF705FBB5
:102D90003B460A9AFDF789FA22463346FDF785FA43
:102DA0000022134BFDF784FA0E46044601EB08514E
:102DB0000815002810DC424620463146FDF7A1FCEC
:102DC000FEF7A6FC042808BFFEF734FD4246204665
:102DD0003146FDF796FC044606980B4614B0224691
:102DE0002946BDE8F04DFDF766BA00007C01000001
:102DF0000000F03F2DE9F04106460F46FDF7DAFCF2
:102E000004000D4618BF0120284320F00040C0F107
:102E10007F6000F1E040C00F0ED0301C18BF0120D1
:102E2000384320F00040C0F17F6000F1E040C00F67
:102E300004BF0120FEF716FD20462946BDE8F081BB
:102E4000000000000000000001020304060708095A
:102E50000000000001020304000000000000F03F39
:102E6000000000000000F83F00000000000000002B
:102E70000000004003B8E23F000000000000000036
:102E800006D0CF43EBFD4C3E033333333333E33FC4
:102E9000FFAB6FDBB66DDB3F4D268F515555D53FF0
:102EA00001411DA96074D13F65DBC9934A86CD3FBE
:102EB000EF4E454A287ECA3F3E5555555555C53FAC
:102EC00093BDBE166CC166BF2CDE25AF6A56113F9E
:102ED000F16BD2C541BDBBBED0A4BE726937663EA0
:102EE00000000000000000004944203D2025640946
:102EF000202074656D70203D2025642E25644309D3
:102F00002020205072657373757265203D20252E38
:102F100032666B506109202020416C7469747564BD
:102F200065203D20252E35666D0D0A004C2F0008CA
:102F3000000000201800000044180008642F00085A
:102F40001800002090040000541800080100000040
:102F500010000000000000000024F4000000000049
:042F6000000000006D
:04000005080000ED02
:00000001FF
